:100000000C9403010C9434010C9434010C943401CD
:100010000C9434010C9434010C9434010C9434018C
:100020000C9434010C9434010C9434010C9434017C
:100030000C9434010C9434010C9434010C9434016C
:100040000C9434010C9434010C9434010C9434015C
:100050000C9434010C9434010C9434010C94590226
:100060000C9434010C94CB050C947B060C94340155
:100070000C9434010C9434010C9434010C9434012C
:100080000C9434010C9434010C9434010C9434011C
:100090000C94F7050C94C6060C9434010C943401AE
:1000A0000C9434010C9434010C9434010C943401FC
:1000B0000C9434010C9434010C9434010C943401EC
:1000C0000C9434010C9434010C9434010C942306E8
:1000D0000C9411070C9434010C944F060C945C079B
:1000E0000C94340100002100240027002A002D0078
:1000F0003000330001010000040107010A01000083
:100100002200250028002B002E00310034000201BF
:100110000000050108010B0100002000230026005B
:1001200029002C002F00320000010000030106010D
:10013000090105050505070508080808020202026D
:100140000A0A080804040404010101010101010173
:100150000303030303030303040707070C0C0C0C3E
:100160000C0C0C0C02020202060606060606060627
:100170000B0B0B0B0B0B0B0B0102102020080810B4
:100180002040102040800201020108040201010207
:1001900004081020408080402010080402018004E0
:1001A000020180402010080402010804020101023B
:1001B0000408102040800102040810204080000044
:1001C000090A02080B0C0D070603040100000000D9
:1001D000000000000000000000000000000000001F
:1001E0000000000000000000000011100F000000DF
:1001F00000000000000000000000000000000000FF
:1002000000000000250811241FBECFEFD1E2DEBFA1
:10021000CDBF00E00CBF12E0A0E0B2E0E8E0F3E107
:1002200000E00BBF02C007900D92AA36B107D9F7C4
:1002300015E0AAE6B2E001C01D92A132B107E1F7D4
:1002400012E0C6E0D2E000E006C022970109FE01FC
:100250000BBF0E947E09C430D10780E00807A9F7D0
:100260000E942E020C9482090C9400000F931F939D
:10027000CF93DF93C5EAD4E0CE0140E051EE60E0D9
:1002800070E00E94A707CE0140E553EC60E070E00B
:100290000E9490048091580261E00E94350200E0C3
:1002A00012E0CE01B8010E946C03CE0163E172E05E
:1002B0000E946C03CE01B8010E946C03DF91CF91C4
:1002C0001F910F9108956F927F928F929F92AF929C
:1002D000BF92CF92DF92EF92FF920F931F930E94F3
:1002E000A1023B014C0185EA94E06FE74AE652E047
:1002F00024E030E00E94960490937B0280937A027F
:10030000009751F485EA94E06EE172E00E946C037C
:1003100010926A0210926B0280917A0290917B0295
:100320008430910534F085EA94E066E272E00E9440
:100330006C0385EA94E06BE10E94780585EA94E01D
:100340006CE272E00E944C0385EA94E06BE10E944B
:10035000780585EA94E060E372E00E944C0385EA48
:1003600094E063E372E00E944C0360917A02709122
:100370007B0285EA94E04AE050E00E94490485EA65
:1003800094E060E472E00E946C0360916A02772757
:1003900067FD709585EA94E04AE050E00E944904C8
:1003A00000D00F9260916A02772767FD7095872FC2
:1003B000972F20E034E040E050E0EDB7FEB7218316
:1003C00032834383548320E030E0A901EEE7EE2E30
:1003D000F12C012D112DAA24BB2465010E94CA0411
:1003E000AB01BC010F900F900F900F9085EA94E045
:1003F0002AE030E00E94360485EA94E06BE472E083
:100400000E946C0360916B02772767FD709585EA07
:1004100094E04AE050E00E94490485EA94E067E5F0
:1004200072E00E946C030E94A102AB01BC0146195C
:1004300057096809790985EA94E02AE030E00E94CA
:10044000E8031F910F91FF90EF90DF90CF90BF9046
:10045000AF909F908F907F906F9008950E94AF0211
:100460000E9436010E946301FDCF90E0FC01E85834
:10047000FE4F2491FC01EE5CFE4FE491EE23C1F0AF
:10048000F0E0EE0FFF1FEC51FF4F85919491DC01DE
:10049000662341F49FB7F8948C91209582238C9326
:1004A0009FBF08959FB7F8948C91822B8C939FBF28
:1004B00008951F920F920FB60F9211242F933F931E
:1004C0008F939F93AF93BF9380918002909181020D
:1004D000A0918202B0918302309184020196A11D05
:1004E000B11D232F2D5F2D3720F02D570196A11D13
:1004F000B11D209384028093800290938102A09387
:100500008202B093830280917C0290917D02A0913F
:100510007E02B0917F020196A11DB11D80937C02E5
:1005200090937D02A0937E02B0937F02BF91AF9122
:100530009F918F913F912F910F900FBE0F901F9021
:1005400018958FB7F89420918002309181024091E4
:100550008202509183028FBFB901CA010895789435
:1005600084B5826084BD84B5816084BD85B58260B8
:1005700085BD85B5816085BDEEE6F0E08081816056
:100580008083E1E8F0E01082808182608083808156
:1005900081608083E0E8F0E0808181608083E1EB2E
:1005A000F0E0808184608083E0EBF0E08081816016
:1005B0008083E1E9F0E080818260808380818160D6
:1005C0008083E0E9F0E0808181608083E1EAF0E00F
:1005D000808182608083808181608083E0EAF0E0B6
:1005E000808181608083E1E2F1E0808182608083AC
:1005F000808181608083E0E2F1E08081816080839E
:10060000EAE7F0E08081846080838081826080837B
:100610008081816080838081806880831092C100A6
:100620000895CF92DF92EF92FF920F931F93CF9393
:10063000DF936C017B018A01C0E0D0E00FC0D701DD
:100640006D917D01D601ED91FC910190F081E02D3D
:10065000C6011995C80FD91F015010400115110589
:1006600071F7CE01DF91CF911F910F91FF90EF9025
:10067000DF90CF900895DB010D900020E9F7AD01E8
:1006800041505040461B570BDC01ED91FC9102801C
:10069000F381E02D199508950E943B030895DC0134
:1006A000ED91FC910190F081E02D199508950F9343
:1006B0001F93CF93DF93EC016DE00E944F038C01F9
:1006C000CE016AE00E944F03080F191FC801DF9195
:1006D000CF911F910F9108950F931F93CF93DF93A5
:1006E000EC010E943B038C01CE010E945703080FCE
:1006F000191FC801DF91CF911F910F9108958F921B
:100700009F92AF92BF92CF92DF92EF92FF920F93A0
:100710001F93DF93CF93CDB7DEB7A1970FB6F894B1
:10072000DEBF0FBECDBF6C01042FE52FCB01122F12
:1007300019A2223008F41AE021E2E22EF12CEC0E8C
:10074000FD1E812E9924AA24BB2403C0022FE32F6F
:10075000CA01602F7E2FA50194010E942D09129FCE
:10076000802D1124081B0894E108F1080A3014F4C4
:10077000005D01C0095CF7010083211531054105C9
:10078000510521F7C601B7010E943B03A1960FB6A0
:10079000F894DEBF0FBECDBFCF91DF911F910F91B7
:1007A000FF90EF90DF90CF90BF90AF909F908F9091
:1007B00008952115310549F4DC01ED91FC9101907A
:1007C000F081E02D642F199508950E947F0308950C
:1007D0000F931F93CF93DF93EC010E94D9038C01F9
:1007E000CE010E945703080F191FC801DF91CF9156
:1007F0001F910F910895CF92DF92EF92FF920F9386
:100800001F93CF93DF93EC017A018B012115310502
:1008100041F4E881F9810190F081E02D642F199570
:100820001AC02A303105A9F477FF12C06DE20E9488
:100830004F036C0144275527BA014E195F09600B1D
:10084000710BCE012AE00E947F03C80ED91E04C09E
:100850002AE00E947F036C01C601DF91CF911F91B6
:100860000F91FF90EF90DF90CF9008950F931F931B
:10087000CF93DF93EC010E94FB038C01CE010E9419
:100880005703080F191FC801DF91CF911F910F91D6
:1008900008950F931F93CF93DF93EC019A01CB013F
:1008A000AC01662757FD6095762FCE010E94FB03B1
:1008B0008C01CE010E945703080F191FC801DF9158
:1008C000CF911F910F910895CF93DF93EC010E9478
:1008D000A102688779878A879B87E881F9810680EA
:1008E000F781E02DCE0119959C0197FF15C00E945C
:1008F000A102288539854A855B85621B730B840BB1
:10090000950B2C813D814E815F81621773078407AF
:10091000950718F32FEF3FEFC901DF91CF910895AD
:10092000FC0144835583668377830895AF92BF9219
:10093000CF92DF92EF92FF920F931F93CF93DF93AB
:100940005C01EA01790121153105B1F000E010E008
:10095000C62EDD24C7FCD0940BC0C5010E946404E0
:1009600097FD0CC08C159D0549F089930F5F1F4FB3
:100970000E151F0590F302C000E010E0C801DF91E2
:10098000CF911F910F91FF90EF90DF90CF90BF908C
:10099000AF9008952F923F924F925F926F927F9205
:1009A0008F929F92AF92BF92CF92DF92EF92FF927F
:1009B0000F931F93DF93CF93CDB7DEB73B014C016D
:1009C00019012A016E897F89888D998D6A197B09A1
:1009D0008C099D09621A730A840A950AA40193017D
:1009E0000E94FB08E218F30804091509A801970101
:1009F0000E944F092A0D3B1D4C1D5D1DB901CA0106
:100A0000CF91DF911F910F91FF90EF90DF90CF90EA
:100A1000BF90AF909F908F907F906F905F904F901E
:100A20003F902F900895FC0184859585FC01E05C42
:100A3000FF4F208131818E5B9F4FFC01808191812E
:100A4000281B390B2F733070C9010895FC01848570
:100A50009585FC01E05CFF4F40815181FC01EE5B1C
:100A6000FF4F208131814217530741F00190F081FF
:100A7000E02DE80FF91F208130E002C02FEF3FEF9B
:100A8000C9010895FC0184859585FC01E05CFF4F58
:100A900040815181FC01EE5BFF4F20813181421783
:100AA000530771F0A081B181A80FB91F2C918081EB
:100AB000918101968F7390709183808330E002C0A2
:100AC0002FEF3FEFC9010895DC011E968D919C9197
:100AD0001F97FC01E05CFF4F8E5B9F4F408151816F
:100AE000DC012D913C91119742175307B9F70895F6
:100AF0001F93FC01162F26853785D901A05CBF4FB7
:100B00008D919C91019660E470E00E941A09D901D0
:100B1000AE5BBF4F4D915C91119784179507D1F350
:100B2000D901A05CBF4F0D90BC91A02DA20FB31FA7
:100B30001C93A685B785A05CBF4F11969C938E939E
:100B4000A689B7892C9181E090E0058C02C0880FBE
:100B5000991F0A94E2F7282B2C9381E090E01F91D3
:100B60000895FB01E05CFF4F208131812F5F3F4FF3
:100B70002F733070DB01AE5BBF4F4D915C911197CD
:100B80002417350739F0A081B181A60FB71F8C93C8
:100B90003183208308951F920F920FB60F920BB6E8
:100BA0000F9211242F933F934F935F936F937F93F3
:100BB0008F939F93AF93BF93EF93FF938091C60062
:100BC00065E872E00E94B105FF91EF91BF91AF918E
:100BD0009F918F917F916F915F914F913F912F9155
:100BE0000F900BBE0F900FBE0F901F9018951F9285
:100BF0000F920FB60F920BB60F9211242F933F93C3
:100C00004F935F936F937F938F939F93AF93BF9314
:100C1000EF93FF938091CE006DE073E00E94B105E9
:100C2000FF91EF91BF91AF919F918F917F916F91C4
:100C30005F914F913F912F910F900BBE0F900FBE80
:100C40000F901F9018951F920F920FB60F920BB630
:100C50000F9211242F933F934F935F936F937F9342
:100C60008F939F93AF93BF93EF93FF938091D600A1
:100C700065E973E00E94B105FF91EF91BF91AF91DB
:100C80009F918F917F916F915F914F913F912F91A4
:100C90000F900BBE0F900FBE0F901F9018951F92D4
:100CA0000F920FB60F920BB60F9211242F933F9312
:100CB0004F935F936F937F938F939F93AF93BF9364
:100CC000EF93FF93809136016DE174E00E94B105CE
:100CD000FF91EF91BF91AF919F918F917F916F9114
:100CE0005F914F913F912F910F900BBE0F900FBED0
:100CF0000F901F9018951F920F920FB60F920BB680
:100D00000F9211242F933F935F936F937F938F9351
:100D10009F93AF93BF93EF93FF932091090330917B
:100D20000A0380910B0390910C032817390731F4C3
:100D30008091C1008F7D8093C10016C0E0910B03AC
:100D4000F0910C03E753FD4F208180910B039091AC
:100D50000C03019660E470E00E941A0990930C0362
:100D600080930B032093C600FF91EF91BF91AF9149
:100D70009F918F917F916F915F913F912F910F90F4
:100D80000BBE0F900FBE0F901F9018951F920F92E1
:100D90000FB60F920BB60F9211242F933F935F93D0
:100DA0006F937F938F939F93AF93BF93EF93FF9333
:100DB0002091910330919203809193039091940339
:100DC0002817390731F48091C9008F7D8093C900BD
:100DD00016C0E0919303F0919403EF5AFC4F2081E9
:100DE0008091930390919403019660E470E00E94D7
:100DF0001A0990939403809393032093CE00FF915C
:100E0000EF91BF91AF919F918F917F916F915F9182
:100E10003F912F910F900BBE0F900FBE0F901F9020
:100E200018951F920F920FB60F920BB60F921124C6
:100E30002F933F935F936F937F938F939F93AF9382
:100E4000BF93EF93FF932091190430911A0480917E
:100E50001B0490911C042817390731F48091D100AC
:100E60008F7D8093D10016C0E0911B04F0911C048B
:100E7000E752FC4F208180911B0490911C04019645
:100E800060E470E00E941A0990931C0480931B0494
:100E90002093D600FF91EF91BF91AF919F918F91D9
:100EA0007F916F915F913F912F910F900BBE0F90AB
:100EB0000FBE0F901F9018951F920F920FB60F92B2
:100EC0000BB60F9211242F933F935F936F937F93F1
:100ED0008F939F93AF93BF93EF93FF932091A104C0
:100EE0003091A2048091A3049091A404281739079B
:100EF00031F4809131018F7D8093310116C0E091F2
:100F0000A304F091A404EF59FB4F20818091A30426
:100F10009091A404019660E470E00E941A099093F5
:100F2000A4048093A30420933601FF91EF91BF9115
:100F3000AF919F918F917F916F915F913F912F9191
:100F40000F900BBE0F900FBE0F901F901895DF9261
:100F5000EF92FF920F931F93CF93DF93EC017A01EF
:100F60008B01DD24D394403081EE580780E0680780
:100F700080E0780749F4DD24EC89FD89108260E87F
:100F800074E88EE190E00FC0EC89FD8981E090E08B
:100F90000E8C02C0880F991F0A94E2F7808360E0EC
:100FA00079E08DE390E0A80197010E942D0921507E
:100FB000304040405040569547953795279580E101
:100FC0002030380710F0DD20B1F6E889F989308348
:100FD000EA89FB892083EE89FF89408181E090E0E6
:100FE0009C010A8C02C0220F331F0A94E2F7422BA5
:100FF0004083EE89FF8940819C010B8C02C0220F47
:10100000331F0A94E2F7422B4083EE89FF89408127
:101010009C010C8C02C0220F331F0A94E2F7422B72
:101020004083EE89FF8920810D8C02C0880F991FB3
:101030000A94E2F7809582238083DF91CF911F91FC
:101040000F91FF90EF90DF9008951F93CF93DF9360
:101050001092A8041092A70488EE93E0A0E0B0E0FC
:101060008093A9049093AA04A093AB04B093AC041A
:10107000E7EAF4E02EE532E03293229345E852E0CD
:101080005587448749EC52E05787468745EC50E046
:10109000518B408B44EC50E0538B428B40EC50E042
:1010A000558B448B41EC50E0578B468B46EC50E01F
:1010B000518F408F14E0128F73E0738F67E0648F5D
:1010C00055E0558F41E0468F1092C7041092C60438
:1010D0008093C8049093C904A093CA04B093CB042E
:1010E000E6ECF4E032932293CDE0D3E0D587C487D9
:1010F000C1E5D3E0D787C687CDECD0E0D18BC08BDC
:10110000CCECD0E0D38BC28BC8ECD0E0D58BC48BB9
:10111000C9ECD0E0D78BC68BCEECD0E0D18FC08F9E
:10112000128F738F648F558F468F1092E604109242
:10113000E5048093E7049093E804A093E904B09356
:10114000EA04E5EEF4E032932293C5E9D3E0D587D3
:10115000C487C9EDD3E0D787C687C5EDD0E0D18B72
:10116000C08BC4EDD0E0D38BC28BC0EDD0E0D58B6B
:10117000C48BC1EDD0E0D78BC68BC6EDD0E0D18F4C
:10118000C08F128F738F648F558F468F1092050515
:10119000109204058093060590930705A093080517
:1011A000B0930905E4E0F5E0329322938DE194E0F9
:1011B0009587848781E694E09787868785E391E029
:1011C000918B808B84E391E0938B828B80E391E021
:1011D000958B848B81E391E0978B868B86E391E0FE
:1011E000918F808F128F738F648F558F468FDF9111
:1011F000CF911F910895629FD001739FF001829F4C
:10120000E00DF11D649FE00DF11D929FF00D839F95
:10121000F00D749FF00D659FF00D9927729FB00D32
:10122000E11DF91F639FB00DE11DF91FBD01CF0145
:101230001124089597FB092E07260AD077FD04D0C4
:1012400049D006D000201AF4709561957F4F08951B
:10125000F6F7909581959F4F0895A1E21A2EAA1B4B
:10126000BB1BFD010DC0AA1FBB1FEE1FFF1FA21756
:10127000B307E407F50720F0A21BB30BE40BF50B53
:10128000661F771F881F991F1A9469F760957095DC
:10129000809590959B01AC01BD01CF01089597FB0E
:1012A000092E05260ED057FD04D0D7DF0AD0001C2A
:1012B00038F450954095309521953F4F4F4F5F4FF3
:1012C0000895F6F790958095709561957F4F8F4FB3
:1012D0009F4F0895AA1BBB1B51E107C0AA1FBB1F4C
:1012E000A617B70710F0A61BB70B881F991F5A95B2
:1012F000A9F780959095BC01CD0108950790F691CE
:08130000E02D1994F894FFCFD1
:101308002D2D2D2D2D2D2D2D2D2D2D2D2D2D2D2D05
:101318002D2D002020205374617274656400546977
:101328006D656F7574004572726F72005B324A00AA
:101338005B4800427974657320526561643A200005
:1013480046697273742042797465005365636F6EE1
:1013580064204279746500000D00000000007805E3
:0A1368001103130542052605640574
:00000001FF
