:100000000C9404010C9435010C9435010C943501C9
:100010000C9435010C9435010C9435010C94350188
:100020000C9435010C9435010C9435010C94350178
:100030000C9435010C9435010C9435010C94350168
:100040000C9435010C94FD010C9435010C94350190
:100050000C9435010C9435010C9435010C940A066E
:100060000C9435010C9451090C94010A0C9435013F
:100070000C9435010C9435010C9435010C94350128
:100080000C942B020C9435010C9435010C94350121
:100090000C947D090C944C0A0C9435010C94350198
:1000A0000C9435010C9435010C9459020C943501D3
:1000B0000C9435010C9435010C9435010C94870295
:1000C0000C9435010C9435010C9435010C94A9095C
:1000D0000C94970A0C9435010C94D5090C94E20AFF
:1000E0000C94350100002100240027002A002D0077
:1000F0003000330001010000040107010A01000083
:100100002200250028002B002E00310034000201BF
:100110000000050108010B0100002000230026005B
:1001200029002C002F00320000010000030106010D
:10013000090105050505070508080808020202026D
:100140000A0A080804040404010101010101010173
:100150000303030303030303040707070C0C0C0C3E
:100160000C0C0C0C02020202060606060606060627
:100170000B0B0B0B0B0B0B0B0102102020080810B4
:100180002040102040800201020108040201010207
:1001900004081020408080402010080402018004E0
:1001A000020180402010080402010804020101023B
:1001B0000408102040800102040810204080000044
:1001C000090A02080B0C0D070603040100000000D9
:1001D000000000000000000000000000000000001F
:1001E0000000000000000000000011100F000000DF
:1001F00000000000000000000000000000000000FF
:10020000000000003105AB0B11241FBECFEFD1E27F
:10021000DEBFCDBF00E00CBF12E0A0E0B2E0ECE238
:10022000FAE100E00BBF02C007900D92A633B107C0
:10023000D9F715E0A6E3B2E001C01D92A438B107DA
:10024000E1F712E0C8E0D2E000E006C02297010921
:10025000FE010BBF0E94100DC430D10780E00807DB
:10026000A9F70E942A050C94140D0C940000EF923B
:10027000FF920F931F93CF93DF93EB017A018C01D1
:10028000DC01A953BD4F8C9187FF03C019821882EE
:1002900037C0C801880F991F800F911F880F991FC1
:1002A000880F991F2C91332727FD3095280F391F70
:1002B0004091360250E02417350714F52C9133276E
:1002C00027FD3095280F391FF901EE0FFF1FE20FB0
:1002D000F31FE95CFD4F208126FF12C02C913327CC
:1002E00027FD3095280F391FF901EE0FFF1FE20F90
:1002F000F31FE95CFD4F80818F7360E00E94D2059F
:10030000F801E953FD4F80818F5F8083C801880F1A
:10031000991F800F911F880F991F880F991F2081A7
:10032000332727FD3095280F391F4091360250E0C2
:10033000241735070CF053C020812C300CF04FC02F
:10034000488159812081332727FD3095280F391F97
:10035000D901AA0FBB1FA20FB31FA95CBD4F1196F5
:100360002D913C911297420F531FD70111965C9328
:100370004E932081332727FD3095280F391FD9014F
:10038000AA0FBB1FA20FB31FA95CBD4F2C9126FF64
:100390002DC02081332727FD3095280F391FF90103
:1003A000EE0FFF1FE20FF31FE95CFD4F80818F739B
:1003B00061E00E94D2051AC080E49CE9F7019183B4
:1003C000808307C0888199810496D70111969C93F8
:1003D0008E93F801E953FD4F8FEF808307C088812A
:1003E0009981BCE984349B0738F3ECCFDF91CF913E
:1003F0001F910F91FF90EF9008951F920F920FB6EB
:100400000F920BB60F9211242F933F934F935F934C
:100410006F937F938F939F93AF93BF93EF93FF93CC
:1004200081E090E064E870E048E850E00E94370125
:10043000FF91EF91BF91AF919F918F917F916F91BC
:100440005F914F913F912F910F900BBE0F900FBE78
:100450000F901F9018951F920F920FB60F920BB628
:100460000F9211242F933F934F935F936F937F933A
:100470008F939F93AF93BF93EF93FF9382E090E0AE
:1004800064E970E048E950E00E943701FF91EF9184
:10049000BF91AF919F918F917F916F915F914F919C
:1004A0003F912F910F900BBE0F900FBE0F901F909A
:1004B00018951F920F920FB60F920BB60F92112440
:1004C0002F933F934F935F936F937F938F939F935C
:1004D000AF93BF93EF93FF9383E090E064EA70E003
:1004E00048EA50E00E943701FF91EF91BF91AF9130
:1004F0009F918F917F916F915F914F913F912F913C
:100500000F900BBE0F900FBE0F901F9018951F926B
:100510000F920FB60F920BB60F9211242F933F93A9
:100520004F935F936F937F938F939F93AF93BF93FB
:10053000EF93FF9380E090E064E271E048E251E0E5
:100540000E943701FF91EF91BF91AF919F918F91E1
:100550007F916F915F914F913F912F910F900BBEC3
:100560000F900FBE0F901F901895FC0180913602DE
:10057000803390F480838F5F80933602808190E097
:10058000FC01EE0FFF1FE80FF91FE95CFD4F88EB40
:100590009BE09283818308958FEF80830895DF929B
:1005A000EF92FF920F931F93CF93DF93EC01D62E20
:1005B0008A0179018881803308F093C0862F61E039
:1005C0000E94AE054881842F90E0FC01EE0FFF1FD2
:1005D000E80FF91FE95CFD4F9D2D9F738081807CA2
:1005E000892B808380E292E0801B910B24E030E035
:1005F000B9010E94AC0C698380E699E08E199F09CD
:10060000B9010E94AC0C6A83842F6CE00E94A00C9C
:1006100090E09C01220F331F280F391F220F331F38
:10062000220F331F40E050E0BA01620F731FFB013D
:10063000EE0FFF1FE60FF71FE95CFD4F608166FDBF
:1006400044C04F5F5F4F4C30510571F753C010925B
:10065000800082E0809381001092850010928400D7
:10066000B19A80916F00826080936F002EC08230BB
:10067000910569F41092900082E0809391001092AD
:1006800095001092940088BB809371001EC0833047
:10069000910569F41092A00082E08093A10010926D
:1006A000A5001092A40089BB809372000EC0009731
:1006B00061F41092200182E08093210110922501C3
:1006C000109224018ABB80937300888190E0FC0122
:1006D000EE0FFF1FE80FF91FE95CFD4F808180647A
:1006E00080838881DF91CF911F910F91FF90EF90D0
:1006F000DF9008958130910509F0B9CFA8CF40E28D
:1007000052E020E639E00E94CF020895FC012081EA
:10071000203308F03FC04181552747FD509588E8B8
:1007200090E0841B950B880F991F880F991F6817FD
:10073000790784F04281552747FD509588E592E07E
:10074000841B950B880F991F880F991F68177907CD
:100750000CF4CB010297AA2797FDA095BA2F74E05D
:10076000880F991FAA1FBB1F7A95D1F763E0B69532
:10077000A795979587956A95D1F74FB7F89430E08C
:10078000F901EE0FFF1FE20FF31FE95CFD4F9283AB
:1007900081834FBF0895AF92BF92CF92DF92EF92C5
:1007A000FF920F931F93CF93DF93EC0182E06032AF
:1007B00078070CF046C077FD04C0653B710524F452
:1007C00005C060E070E002C064EB70E000D00F9202
:1007D000882777FD8095982F4981552747FD5095AB
:1007E00028E830E0241B350B220F331F220F331F64
:1007F0005901CC24B7FCC094DC2C4A81552747FD15
:10080000509528E532E0241B350B220F331F220FB1
:10081000331F442737FD4095542FEDB7FEB7218392
:1008200032834383548320E030E0A901B4EBEB2E04
:10083000F12C012D112D0E9450080F900F900F9058
:100840000F90CE010E948603DF91CF911F910F91EF
:10085000FF90EF90DF90CF90BF90AF9008950F93EF
:100860001F93CF93DF93C8E0D5E0CE0140E051EE77
:1008700060E070E00E942D0BCE0144E650E060E0A5
:1008800070E00E94160881ED92E065E070E00E9441
:100890007F0384ED92E066E070E00E947F0300E059
:1008A00012E0CE01B8010E941D07CE0163E172E0A3
:1008B0000E941D07CE01B8010E941D07DF91CF9154
:1008C0001F910F9108956F927F928F929F92AF9296
:1008D000BF92CF92DF92EF92FF920F931F9388E027
:1008E00095E06FE74BEC52E024E030E00E941C08FA
:1008F0009093D0028093CF028230910559F088E026
:1009000095E06EE172E00E94FD061092CB0210921B
:10091000CC0206C088E095E061E272E00E94FD062C
:100920006091CB02772767FD70957093D802609332
:10093000D7028091CC02992787FD90959093DA0297
:100940008093D90200D00F92882777FD8095982F49
:10095000A8E76A2E712C812C912CEDB7FEB761822D
:1009600072828382948222E83FEF4FEF5FEFFEE7CF
:10097000EF2EF12C012D112DECE3AE2EB12CC12C5C
:10098000D12C0E9450087093DC026093DB026091CE
:10099000D9027091DA02882777FD8095982FEDB7FC
:1009A000FEB7618272828382948222E83FEF4FEF2A
:1009B0005FEF0E9450087093DE026093DD020F909B
:1009C0000F900F900F906091DB027091DC0281ED2F
:1009D00092E00E94CB036091DD027091DE0284ED13
:1009E00092E00E94CB036091CF027091D00288E028
:1009F00095E04AE050E00E94C50788E095E064E297
:100A000072E00E94FD066091DB027091DC0288E0DA
:100A100095E04AE050E00E94C50788E095E064E276
:100A200072E00E94FD066091DD027091DE0288E0B6
:100A300095E04AE050E00E94CF071F910F91FF9090
:100A4000EF90DF90CF90BF90AF909F908F907F906E
:100A50006F9008950E9460060E942F040E94630414
:100A6000FDCF81ED92E00E94B50284ED92E00E94FC
:100A7000B5020895893009F449C08A30A0F4843061
:100A800051F1853040F4823079F1833000F58130C6
:100A900009F063C026C0873079F1883098F5863038
:100AA00009F05BC025C08D3009F442C08E3028F4B7
:100AB0008B30B1F18C30C0F52DC0803109F442C0CB
:100AC000813109F445C08F3009F047C037C08091AB
:100AD00080008F7703C0809180008F7D809380009D
:100AE000089584B58F7702C084B58F7D84BD089545
:100AF0008091B0008F7703C08091B0008F7D80938C
:100B0000B0000895809190008F7707C08091900089
:100B10008F7D03C080919000877F8093900008951F
:100B20008091A0008F7707C08091A0008F7D03C0C7
:100B30008091A000877F8093A0000895809120017C
:100B40008F7703C0809120018F7D809320010895CD
:100B500080912001877F80932001089590E0FC011F
:100B6000E858FE4F2491FC01EE5CFE4FE491EE2329
:100B7000C1F0F0E0EE0FFF1FEC51FF4F8591949113
:100B8000DC01662341F49FB7F8948C912095822371
:100B90008C939FBF08959FB7F8948C91822B8C9370
:100BA0009FBF08950F931F93DF93CF930F92CDB7FD
:100BB000DEB7282F30E0F901E254FE4F8491F901AD
:100BC000E858FE4F14912E5C3E4FF901049100232A
:100BD000D9F0882321F069830E943A056981E02FCA
:100BE000F0E0EE0FFF1FE250FF4F85919491DC0182
:100BF0009FB7F894662321F48C911095812302C04D
:100C00008C91812B8C939FBF0F90CF91DF911F917F
:100C10000F9108951F920F920FB60F9211242F93E8
:100C20003F938F939F93AF93BF938091E3029091F3
:100C3000E402A091E502B091E6023091E70201964C
:100C4000A11DB11D232F2D5F2D3720F02D570196AB
:100C5000A11DB11D2093E7028093E3029093E4026B
:100C6000A093E502B093E6028091DF029091E0024A
:100C7000A091E102B091E2020196A11DB11D809305
:100C8000DF029093E002A093E102B093E202BF91F1
:100C9000AF919F918F913F912F910F900FBE0F9029
:100CA0001F9018958FB7F8942091E3023091E402D9
:100CB0004091E5025091E6028FBFB901CA01089543
:100CC000789484B5826084BD84B5816084BD85B527
:100CD000826085BD85B5816085BDEEE6F0E08081EE
:100CE00081608083E1E8F0E010828081826080830F
:100CF000808181608083E0E8F0E080818160808392
:100D0000E1EBF0E0808184608083E0EBF0E08081C3
:100D100081608083E1E9F0E080818260808380816E
:100D200081608083E0E9F0E0808181608083E1EA96
:100D3000F0E0808182608083808181608083E0EA4E
:100D4000F0E0808181608083E1E2F1E08081826077
:100D50008083808181608083E0E2F1E08081816036
:100D60008083EAE7F0E08081846080838081826014
:100D700080838081816080838081806880831092FD
:100D8000C1000895CF92DF92EF92FF920F931F93CD
:100D9000CF93DF936C017B018A01C0E0D0E00FC0EC
:100DA000D7016D917D01D601ED91FC910190F0810B
:100DB000E02DC6011995C80FD91F0150104001152B
:100DC000110571F7CE01DF91CF911F910F91FF9027
:100DD000EF90DF90CF900895DB010D900020E9F7B0
:100DE000AD0141505040461B570BDC01ED91FC9189
:100DF0000280F381E02D199508950E94EC06089574
:100E0000DC01ED91FC910190F081E02D19950895A0
:100E10000F931F93CF93DF93EC016DE00E940007C7
:100E20008C01CE016AE00E940007080F191FC8015B
:100E3000DF91CF911F910F9108950F931F93CF933F
:100E4000DF93EC010E94EC068C01CE010E940807A2
:100E5000080F191FC801DF91CF911F910F910895BD
:100E60008F929F92AF92BF92CF92DF92EF92FF92BA
:100E70000F931F93DF93CF93CDB7DEB7A1970FB634
:100E8000F894DEBF0FBECDBF6C01042FE52FCB0160
:100E9000122F19A2223008F41AE021E2E22EF12CDE
:100EA000EC0EFD1E812E9924AA24BB2403C0022F20
:100EB000E32FCA01602F7E2FA50194010E94BF0C71
:100EC000129F802D1124081B0894E108F1080A30B4
:100ED00014F4005D01C0095CF701008321153105A0
:100EE0004105510521F7C601B7010E94EC06A19604
:100EF0000FB6F894DEBF0FBECDBFCF91DF911F912B
:100F00000F91FF90EF90DF90CF90BF90AF909F90A8
:100F10008F900895CF92DF92EF92FF920F931F93DD
:100F2000CF93DF93EC017A018B012115310541F458
:100F3000E881F9810190F081E02D642F19951AC0A4
:100F40002A303105A9F477FF12C06DE20E94000734
:100F50006C0144275527BA014E195F09600B710BCC
:100F6000CE012AE00E943007C80ED91E04C02AE034
:100F70000E9430076C01C601DF91CF911F910F9144
:100F8000FF90EF90DF90CF9008959A01FB01AF01A1
:100F9000662757FD6095762F0E948A0708950F9364
:100FA0001F93CF93DF93EC019A01CB01AC0166272D
:100FB00057FD6095762FCE010E948A078C01CE01E5
:100FC0000E940807080F191FC801DF91CF911F91D8
:100FD0000F910895CF93DF93EC010E94520668872A
:100FE00079878A879B87E881F9810680F781E02DE0
:100FF000CE0119959C0197FF15C00E9452062885C5
:1010000039854A855B85621B730B840B950B2C819C
:101010003D814E815F81621773078407950718F33E
:101020002FEF3FEFC901DF91CF910895FC01448379
:101030005583668377830895AF92BF92CF92DF92F4
:10104000EF92FF920F931F93CF93DF935C01EA011E
:10105000790121153105B1F000E010E0C62EDD2444
:10106000C7FCD0940BC0C5010E94EA0797FD0CC0D5
:101070008C159D0549F089930F5F1F4F0E151F05B5
:1010800090F302C000E010E0C801DF91CF911F9102
:101090000F91FF90EF90DF90CF90BF90AF900895A9
:1010A0002F923F924F925F926F927F928F929F9278
:1010B000AF92BF92CF92DF92EF92FF920F931F9366
:1010C000DF93CF93CDB7DEB73B014C0119012A0165
:1010D0006E897F89888D998D6A197B098C099D0994
:1010E000621A730A840A950AA40193010E94810C72
:1010F000E218F30804091509A80197010E94E10C00
:101100002A0D3B1D4C1D5D1DB901CA01CF91DF9118
:101110001F910F91FF90EF90DF90CF90BF90AF9015
:101120009F908F907F906F905F904F903F902F9007
:101130000895FC0184859585FC01E05CFF4F2081CA
:1011400031818E5B9F4FFC0180819181281B390B7F
:101150002F733070C9010895FC0184859585FC01C9
:10116000E05CFF4F40815181FC01EE5BFF4F20812D
:1011700031814217530741F00190F081E02DE80FD3
:10118000F91F208130E002C02FEF3FEFC901089521
:10119000FC0184859585FC01E05CFF4F4081518115
:1011A000FC01EE5BFF4F208131814217530771F044
:1011B000A081B181A80FB91F2C91808191810196E6
:1011C0008F7390709183808330E002C02FEF3FEFE8
:1011D000C9010895DC011E968D919C911F97FC0119
:1011E000E05CFF4F8E5B9F4F40815181DC012D9170
:1011F0003C91119742175307B9F708951F93FC01CB
:10120000162F26853785D901A05CBF4F8D919C9103
:10121000019660E470E00E94AC0CD901AE5BBF4F58
:101220004D915C91119784179507D1F3D901A05C7A
:10123000BF4F0D90BC91A02DA20FB31F1C93A6858C
:10124000B785A05CBF4F11969C938E93A689B789F2
:101250002C9181E090E0058C02C0880F991F0A94C0
:10126000E2F7282B2C9381E090E01F910895FB0179
:10127000E05CFF4F208131812F5F3F4F2F73307033
:10128000DB01AE5BBF4F4D915C9111972417350781
:1012900039F0A081B181A60FB71F8C9331832083D1
:1012A00008951F920F920FB60F920BB60F92112452
:1012B0002F933F934F935F936F937F938F939F935E
:1012C000AF93BF93EF93FF938091C60068EE72E0F7
:1012D0000E943709FF91EF91BF91AF919F918F913C
:1012E0007F916F915F914F913F912F910F900BBE26
:1012F0000F900FBE0F901F9018951F920F920FB670
:101300000F920BB60F9211242F933F934F935F933D
:101310006F937F938F939F93AF93BF93EF93FF93BD
:101320008091CE0060E773E00E943709FF91EF9152
:10133000BF91AF919F918F917F916F915F914F91ED
:101340003F912F910F900BBE0F900FBE0F901F90EB
:1013500018951F920F920FB60F920BB60F92112491
:101360002F933F934F935F936F937F938F939F93AD
:10137000AF93BF93EF93FF938091D60068EF73E034
:101380000E943709FF91EF91BF91AF919F918F918B
:101390007F916F915F914F913F912F910F900BBE75
:1013A0000F900FBE0F901F9018951F920F920FB6BF
:1013B0000F920BB60F9211242F933F934F935F938D
:1013C0006F937F938F939F93AF93BF93EF93FF930D
:1013D0008091360160E874E00E943709FF91EF9137
:1013E000BF91AF919F918F917F916F915F914F913D
:1013F0003F912F910F900BBE0F900FBE0F901F903B
:1014000018951F920F920FB60F920BB60F921124E0
:101410002F933F935F936F937F938F939F93AF939C
:10142000BF93EF93FF9320916C0330916D038091F4
:101430006E0390916F032817390731F48091C10032
:101440008F7D8093C10016C0E0916E03F0916F0311
:10145000E45DFC4F208180916E0390916F030196B3
:1014600060E470E00E94AC0C90936F0380936E0375
:101470002093C600FF91EF91BF91AF919F918F9103
:101480007F916F915F913F912F910F900BBE0F90C5
:101490000FBE0F901F9018951F920F920FB60F92CC
:1014A0000BB60F9211242F933F935F936F937F930B
:1014B0008F939F93AF93BF93EF93FF932091F40388
:1014C0003091F5038091F6039091F70328173907BF
:1014D00031F48091C9008F7D8093C90016C0E091DE
:1014E000F603F091F703EC54FC4F20818091F60352
:1014F0009091F703019660E470E00E94AC0C909329
:10150000F7038093F6032093CE00FF91EF91BF91F4
:10151000AF919F918F917F916F915F913F912F91AB
:101520000F900BBE0F900FBE0F901F9018951F923B
:101530000F920FB60F920BB60F9211242F933F9379
:101540005F936F937F938F939F93AF93BF93EF932B
:10155000FF9320917C0430917D0480917E049091D2
:101560007F042817390731F48091D1008F7D809353
:10157000D10016C0E0917E04F0917F04E45CFB4F43
:10158000208180917E0490917F04019660E470E058
:101590000E94AC0C90937F0480937E042093D6002D
:1015A000FF91EF91BF91AF919F918F917F916F913B
:1015B0005F913F912F910F900BBE0F900FBE0F9038
:1015C0001F9018951F920F920FB60F920BB60F92A5
:1015D00011242F933F935F936F937F938F939F93E8
:1015E000AF93BF93EF93FF932091040530910505CE
:1015F00080910605909107052817390731F48091ED
:1016000031018F7D8093310116C0E0910605F09184
:101610000705EC53FB4F208180910605909107054B
:10162000019660E470E00E94AC0C909307058093F3
:10163000060520933601FF91EF91BF91AF919F91E5
:101640008F917F916F915F913F912F910F900BBE82
:101650000F900FBE0F901F901895DF92EF92FF92A0
:101660000F931F93CF93DF93EC017A018B01DD245D
:10167000D394403081EE580780E0680780E0780717
:1016800049F4DD24EC89FD89108260E874E88EE17C
:1016900090E00FC0EC89FD8981E090E00E8C02C0E3
:1016A000880F991F0A94E2F7808360E079E08DE368
:1016B00090E0A80197010E94BF0C215030404040AB
:1016C0005040569547953795279580E1203038074B
:1016D00010F0DD20B1F6E889F9893083EA89FB89C9
:1016E0002083EE89FF89408181E090E09C010A8C93
:1016F00002C0220F331F0A94E2F7422B4083EE8987
:10170000FF8940819C010B8C02C0220F331F0A9479
:10171000E2F7422B4083EE89FF8940819C010C8CCB
:1017200002C0220F331F0A94E2F7422B4083EE8956
:10173000FF8920810D8C02C0880F991F0A94E2F75F
:10174000809582238083DF91CF911F910F91FF902D
:10175000EF90DF9008951F93CF93DF9310920B05C6
:1017600010920A0588EE93E0A0E0B0E080930C05AB
:1017700090930D05A0930E05B0930F05EAE0F5E0F8
:101780002AE232E03293229348EE52E055874487B2
:101790004CE253E05787468745EC50E0518B408B35
:1017A00044EC50E0538B428B40EC50E0558B448B23
:1017B00041EC50E0578B468B46EC50E0518F408F08
:1017C00014E0128F73E0738F67E0648F55E0558FDC
:1017D00041E0468F10922A051092290580932B052F
:1017E00090932C05A0932D05B0932E05E9E2F5E02A
:1017F00032932293C0E7D3E0D587C487C4EBD3E00C
:10180000D787C687CDECD0E0D18BC08BCCECD0E0B5
:10181000D38BC28BC8ECD0E0D58BC48BC9ECD0E0A5
:10182000D78BC68BCEECD0E0D18FC08F128F738F49
:10183000648F558F468F109249051092480580930A
:101840004A0590934B05A0934C05B0934D05E8E4F1
:10185000F5E032932293C8EFD3E0D587C487CCE379
:10186000D4E0D787C687C5EDD0E0D18BC08BC4ED5F
:10187000D0E0D38BC28BC0EDD0E0D58BC48BC1ED53
:10188000D0E0D78BC68BC6EDD0E0D18FC08F128F42
:10189000738F648F558F468F10926805109267057D
:1018A0008093690590936A05A0936B05B0936C05CE
:1018B000E7E6F5E03293229380E894E09587848709
:1018C00084EC94E09787868785E391E0918B808B09
:1018D00084E391E0938B828B80E391E0958B848B02
:1018E00081E391E0978B868B86E391E0918F808FE7
:1018F000128F738F648F558F468FDF91CF911F9119
:101900000895629FD001739FF001829FE00DF11D49
:10191000649FE00DF11D929FF00D839FF00D749F69
:10192000F00D659FF00D9927729FB00DE11DF91F15
:10193000639FB00DE11DF91FBD01CF011124089572
:10194000991B79E004C0991F961708F0961B881F11
:101950007A95C9F78095089597FB092E07260AD036
:1019600077FD04D049D006D000201AF47095619517
:101970007F4F0895F6F7909581959F4F0895A1E2C6
:101980001A2EAA1BBB1BFD010DC0AA1FBB1FEE1FF9
:10199000FF1FA217B307E407F50720F0A21BB30B44
:1019A000E40BF50B661F771F881F991F1A9469F7C0
:1019B00060957095809590959B01AC01BD01CF011C
:1019C000089597FB092E05260ED057FD04D0D7DFCA
:1019D0000AD0001C38F450954095309521953F4F22
:1019E0004F4F5F4F0895F6F79095809570956195EC
:1019F0007F4F8F4F9F4F0895AA1BBB1B51E107C01C
:101A0000AA1FBB1FA617B70710F0A61BB70B881F8E
:101A1000991F5A95A9F780959095BC01CD0108951D
:0C1A20000790F691E02D1994F894FFCF88
:101A2C002D2D2D2D2D2D2D2D2D2D2D2D2D2D2D2DDA
:101A3C002D2D0020202053746172746564002120C8
:101A4C00002A2000090000000000FE08C2069908C8
:061A5C00C808AC08EA080E
:00000001FF
