:100000000C9403010C9434010C9434010C943401CD
:100010000C9434010C9434010C9434010C9434018C
:100020000C9434010C9434010C9434010C9434017C
:100030000C9434010C9434010C9434010C9434016C
:100040000C9434010C9434010C9434010C9434015C
:100050000C9434010C9434010C9434010C9475020A
:100060000C9434010C948F040C943F050C943401CF
:100070000C9434010C9434010C9434010C9434012C
:100080000C9434010C9434010C9434010C9434011C
:100090000C94BB040C948A050C9434010C94340128
:1000A0000C9434010C9434010C9434010C943401FC
:1000B0000C9434010C9434010C9434010C943401EC
:1000C0000C9434010C9434010C9434010C94E70426
:1000D0000C94D5050C9434010C9413050C94200653
:1000E0000C94340100002100240027002A002D0078
:1000F0003000330001010000040107010A01000083
:100100002200250028002B002E00310034000201BF
:100110000000050108010B0100002000230026005B
:1001200029002C002F00320000010000030106010D
:10013000090105050505070508080808020202026D
:100140000A0A080804040404010101010101010173
:100150000303030303030303040707070C0C0C0C3E
:100160000C0C0C0C02020202060606060606060627
:100170000B0B0B0B0B0B0B0B0102102020080810B4
:100180002040102040800201020108040201010207
:1001900004081020408080402010080402018004E0
:1001A000020180402010080402010804020101023B
:1001B0000408102040800102040810204080000044
:1001C000090A02080B0C0D070603040100000000D9
:1001D000000000000000000000000000000000001F
:1001E0000000000000000000000011100F000000DF
:1001F00000000000000000000000000000000000FF
:1002000000000000E90611241FBECFEFD1E2DEBFDF
:10021000CDBF00E00CBF12E0A0E0B2E0ECE1F0E105
:1002200000E00BBF02C007900D92A833B107D9F7C9
:1002300014E0A8E3B2E001C01D92AD3DB107E1F7C3
:1002400012E0C6E0D2E000E006C022970109FE01FC
:100250000BBF0E940808C430D10780E00807A9F747
:100260000E949E010C940C080C9400000F931F93A5
:10027000CF93DF93C1E6D4E0CE0140E855E260E0E1
:1002800070E00E946B068091250261E00E941902D5
:1002900000E012E0CE01B8010E94C403CE0163E188
:1002A00072E00E94C403CE01B8010E94C403DF9132
:1002B000CF911F910F910895CF92DF92EF92FF920D
:1002C0000F931F93CF93DF936C01CB0162E070E03B
:1002D0000E94BF077B010027F7FC0095102FC0E0AC
:1002E000D0E013C08091250261E00E943D02C80168
:1002F000B7010E94E3028091250260E00E943D0266
:10030000C801B7010E94E3022196CC15DD0554F324
:10031000DF91CF911F910F91FF90EF90DF90CF90E1
:10032000089583E090E062E370E00E945C0168EE73
:1003300073E080E090E00E94E30208950E940A03C7
:100340000E9436010E949101FDCF893009F449C015
:100350008A30A0F4843051F1853040F4823079F154
:10036000833000F5813009F063C026C0873079F111
:10037000883098F5863009F05BC025C08D3009F4CF
:1003800042C08E3028F48B30B1F18C30C0F52DC0D6
:10039000803109F442C0813109F445C08F3009F041
:1003A00047C037C0809180008F7703C08091800064
:1003B0008F7D80938000089584B58F7702C084B5C7
:1003C0008F7D84BD08958091B0008F7703C08091A8
:1003D000B0008F7D8093B0000895809190008F775A
:1003E00007C0809190008F7D03C080919000877F2F
:1003F0008093900008958091A0008F7707C080912E
:10040000A0008F7D03C08091A000877F8093A00013
:100410000895809120018F7703C0809120018F7D06
:1004200080932001089580912001877F809320018F
:10043000089590E0FC01E858FE4F2491FC01EE5C29
:10044000FE4FE491EE23C1F0F0E0EE0FFF1FEC5100
:10045000FF4F85919491DC01662341F49FB7F89496
:100460008C91209582238C939FBF08959FB7F89419
:100470008C91822B8C939FBF08950F931F93DF93D2
:10048000CF930F92CDB7DEB7282F30E0F901E254B9
:10049000FE4F8491F901E858FE4F14912E5C3E4FB7
:1004A000F90104910023D9F0882321F069830E9487
:1004B000A5016981E02FF0E0EE0FFF1FE250FF4F32
:1004C00085919491DC019FB7F894662321F48C9177
:1004D0001095812302C08C91812B8C939FBF0F902C
:1004E000CF91DF911F910F9108951F920F920FB638
:1004F0000F9211242F933F938F939F93AF93BF93AA
:1005000080913C0290913D02A0913E02B0913F0249
:10051000309140020196A11DB11D232F2D5F2D3773
:1005200020F02D570196A11DB11D2093400280930C
:100530003C0290933D02A0933E02B0933F02809113
:10054000380290913902A0913A02B0913B02019693
:10055000A11DB11D8093380290933902A0933A02F5
:10056000B0933B02BF91AF919F918F913F912F919B
:100570000F900FBE0F901F9018959FB7F894209181
:1005800038023091390240913A0250913B0286B5CF
:10059000A89B06C08F3F21F02F5F3F4F4F4F5F4F0B
:1005A0009FBF542F432F322F2227280F311D411D6B
:1005B000511D82E0220F331F441F551F8A95D1F72A
:1005C000B901CA010895EF92FF920F931F93CF9341
:1005D000DF937B018C010E94BD02EB010FC00E94E2
:1005E000BD026C1B7D0B83E0683E780738F00894F1
:1005F000E108F10801091109C851DC4FE114F104C7
:100600000105110561F7DF91CF911F910F91FF90C7
:10061000EF900895789484B5826084BD84B581603C
:1006200084BD85B5826085BD85B5816085BDEEE6FA
:10063000F0E0808181608083E1E8F0E010828081D9
:1006400082608083808181608083E0E8F0E0808147
:1006500081608083E1EBF0E0808184608083E0EB67
:10066000F0E0808181608083E1E9F0E08081826058
:100670008083808181608083E0E9F0E08081816017
:100680008083E1EAF0E08081826080838081816004
:100690008083E0EAF0E0808181608083E1E2F1E044
:1006A000808182608083808181608083E0E2F1E0EC
:1006B000808181608083EAE7F0E0808184608083CC
:1006C0008081826080838081816080838081806876
:1006D00080831092C1000895CF92DF92EF92FF9233
:1006E0000F931F93CF93DF936C017B018A01C0E0CE
:1006F000D0E00FC0D7016D917D01D601ED91FC9145
:100700000190F081E02DC6011995C80FD91F015045
:1007100010400115110571F7CE01DF91CF911F91A6
:100720000F91FF90EF90DF90CF900895DB010D9037
:100730000020E9F7AD0141505040461B570BDC014A
:10074000ED91FC910280F381E02D19950895DC0173
:10075000ED91FC910190F081E02D199508950F9392
:100760001F93CF93DF93EC016DE00E94A7038C01F0
:10077000CE016AE00E94A703080F191FC801DF918C
:10078000CF911F910F9108950F931F93CF93DF93F4
:10079000EC010E9496038C01CE010E94AF03080F6A
:1007A000191FC801DF91CF911F910F910895FC018E
:1007B00084859585FC01E05CFF4F208131818E5B53
:1007C0009F4FFC0180819181281B390B2F73307062
:1007D000C9010895FC0184859585FC01E05CFF4F0B
:1007E00040815181FC01EE5BFF4F20813181421736
:1007F000530741F00190F081E02DE80FF91F2081AF
:1008000030E002C02FEF3FEFC9010895FC0184855D
:100810009585FC01E05CFF4F40815181FC01EE5B5E
:10082000FF4F208131814217530771F0A081B181C0
:10083000A80FB91F2C918081918101968F739070C0
:100840009183808330E002C02FEF3FEFC90108950C
:10085000DC011E968D919C911F97FC01E05CFF4F7F
:100860008E5B9F4F40815181DC012D913C9111970E
:1008700042175307B9F708951F93FC01162F2685D9
:100880003785D901A05CBF4F8D919C91019660E4A2
:1008900070E00E94BF07D901AE5BBF4F4D915C91E4
:1008A000119784179507D1F3D901A05CBF4F0D9024
:1008B000BC91A02DA20FB31F1C93A685B785A05C89
:1008C000BF4F11969C938E93A689B7892C9181E096
:1008D00090E0058C02C0880F991F0A94E2F7282B3C
:1008E0002C9381E090E01F910895FB01E05CFF4FA5
:1008F000208131812F5F3F4F2F733070DB01AE5B62
:10090000BF4F4D915C9111972417350739F0A081A5
:10091000B181A60FB71F8C933183208308951F9256
:100920000F920FB60F920BB60F9211242F933F9395
:100930004F935F936F937F938F939F93AF93BF93E7
:10094000EF93FF938091C60061E472E00E9475040A
:10095000FF91EF91BF91AF919F918F917F916F9197
:100960005F914F913F912F910F900BBE0F900FBE53
:100970000F901F9018951F920F920FB60F920BB603
:100980000F9211242F933F934F935F936F937F9315
:100990008F939F93AF93BF93EF93FF938091CE007C
:1009A00069EC72E00E947504FF91EF91BF91AF91E5
:1009B0009F918F917F916F915F914F913F912F9177
:1009C0000F900BBE0F900FBE0F901F9018951F92A7
:1009D0000F920FB60F920BB60F9211242F933F93E5
:1009E0004F935F936F937F938F939F93AF93BF9337
:1009F000EF93FF938091D60061E573E00E94750448
:100A0000FF91EF91BF91AF919F918F917F916F91E6
:100A10005F914F913F912F910F900BBE0F900FBEA2
:100A20000F901F9018951F920F920FB60F920BB652
:100A30000F9211242F933F934F935F936F937F9364
:100A40008F939F93AF93BF93EF93FF938091360162
:100A500069ED73E00E947504FF91EF91BF91AF9132
:100A60009F918F917F916F915F914F913F912F91C6
:100A70000F900BBE0F900FBE0F901F9018951F92F6
:100A80000F920FB60F920BB60F9211242F933F9334
:100A90005F936F937F938F939F93AF93BF93EF93E6
:100AA000FF932091C5023091C6028091C7029091B8
:100AB000C8022817390731F48091C1008F7D8093D7
:100AC000C10016C0E091C702F091C802EB57FD4F7C
:100AD00020818091C7029091C802019660E470E085
:100AE0000E94BF079093C8028093C7022093C6005C
:100AF000FF91EF91BF91AF919F918F917F916F91F6
:100B00005F913F912F910F900BBE0F900FBE0F90F2
:100B10001F9018951F920F920FB60F920BB60F925F
:100B200011242F933F935F936F937F938F939F93A2
:100B3000AF93BF93EF93FF9320914D0330914E03FA
:100B400080914F03909150032817390731F4809119
:100B5000C9008F7D8093C90016C0E0914F03F091CA
:100B60005003E35FFC4F208180914F03909150032D
:100B7000019660E470E00E94BF0790935003809359
:100B80004F032093CE00FF91EF91BF91AF919F91C2
:100B90008F917F916F915F913F912F910F900BBE3D
:100BA0000F900FBE0F901F9018951F920F920FB6C7
:100BB0000F920BB60F9211242F933F935F936F9375
:100BC0007F938F939F93AF93BF93EF93FF93209166
:100BD000D5033091D6038091D7039091D80328177D
:100BE000390731F48091D1008F7D8093D10016C0F8
:100BF000E091D703F091D803EB56FC4F2081809110
:100C0000D7039091D803019660E470E00E94BF077B
:100C10009093D8038093D7032093D600FF91EF9150
:100C2000BF91AF919F918F917F916F915F913F9114
:100C30002F910F900BBE0F900FBE0F901F90189525
:100C40001F920F920FB60F920BB60F9211242F9393
:100C50003F935F936F937F938F939F93AF93BF93D4
:100C6000EF93FF9320915D0430915E0480915F04C7
:100C7000909160042817390731F4809131018F7DFC
:100C80008093310116C0E0915F04F0916004E35E4F
:100C9000FB4F208180915F0490916004019660E495
:100CA00070E00E94BF079093600480935F042093DC
:100CB0003601FF91EF91BF91AF919F918F917F91FD
:100CC0006F915F913F912F910F900BBE0F900FBED0
:100CD0000F901F901895DF92EF92FF920F931F9342
:100CE000CF93DF93EC017A018B01DD24D394403064
:100CF00081EE580780E0680780E0780749F4DD243A
:100D0000EC89FD89108260E874E88EE190E00FC004
:100D1000EC89FD8981E090E00E8C02C0880F991F5C
:100D20000A94E2F7808360E079E08DE390E0A80127
:100D300097010E94D20721503040404050405695C4
:100D400047953795279580E12030380710F0DD2052
:100D5000B1F6E889F9893083EA89FB892083EE8935
:100D6000FF89408181E090E09C010A8C02C0220F43
:100D7000331F0A94E2F7422B4083EE89FF894081BA
:100D80009C010B8C02C0220F331F0A94E2F7422B06
:100D90004083EE89FF8940819C010C8C02C0220FA8
:100DA000331F0A94E2F7422B4083EE89FF892081AA
:100DB0000D8C02C0880F991F0A94E2F78095822358
:100DC0008083DF91CF911F910F91FF90EF90DF9083
:100DD00008951F93CF93DF931092640410926304DD
:100DE00088EE93E0A0E0B0E0809365049093660401
:100DF000A0936704B0936804E3E6F4E02BE232E0EA
:100E00003293229341E452E05587448745E852E00B
:100E10005787468745EC50E0518B408B44EC50E0BF
:100E2000538B428B40EC50E0558B448B41EC50E0AF
:100E3000578B468B46EC50E0518F408F14E0128F59
:100E400073E0738F67E0648F55E0558F41E0468F04
:100E500010928304109282048093840490938504FA
:100E6000A0938604B0938704E2E8F4E032932293DF
:100E7000C9ECD2E0D587C487CDE0D3E0D787C68759
:100E8000CDECD0E0D18BC08BCCECD0E0D38BC28B3F
:100E9000C8ECD0E0D58BC48BC9ECD0E0D78BC68B27
:100EA000CEECD0E0D18FC08F128F738F648F558FAF
:100EB000468F1092A2041092A1048093A3049093F1
:100EC000A404A093A504B093A604E1EAF4E032934D
:100ED0002293C1E5D3E0D587C487C5E9D3E0D7879E
:100EE000C687C5EDD0E0D18BC08BC4EDD0E0D38BED
:100EF000C28BC0EDD0E0D58BC48BC1EDD0E0D78BD9
:100F0000C68BC6EDD0E0D18FC08F128F738F648FE8
:100F1000558F468F1092C1041092C0048093C20472
:100F20009093C304A093C404B093C504E0ECF4E030
:100F30003293229389ED93E0958784878DE194E045
:100F40009787868785E391E0918B808B84E391E09E
:100F5000938B828B80E391E0958B848B81E391E08E
:100F6000978B868B86E391E0918F808F128F738FA2
:100F7000648F558F468FDF91CF911F91089597FB16
:100F8000092E07260AD077FD04D02ED006D00020E7
:100F90001AF4709561957F4F0895F6F790958195B5
:100FA0009F4F0895A1E21A2EAA1BBB1BFD010DC085
:100FB000AA1FBB1FEE1FFF1FA217B307E407F50709
:100FC00020F0A21BB30BE40BF50B661F771F881FE5
:100FD000991F1A9469F760957095809590959B017B
:100FE000AC01BD01CF010895AA1BBB1B51E107C095
:100FF000AA1FBB1FA617B70710F0A61BB70B881FA9
:10100000991F5A95A9F780959095BC01CD01089537
:0C1010000790F691E02D1994F894FFCFA2
:10101C002D2D2D2D2D2D2D2D2D2D2D2D2D2D2D2DF4
:10102C002D2D0020202068656C6C6F204576657234
:10103C00796F6E65000D00000000003C046C03D756
:08104C00030604EA0328040076
:00000001FF
